{
  "_format": "hh-sol-artifact-1",
  "contractName": "RoyaltiesToken",
  "sourceName": "contracts/RoyaltiesToken.sol",
  "abi": [
    {
      "inputs": [
        {
          "internalType": "string",
          "name": "name_",
          "type": "string"
        },
        {
          "internalType": "string",
          "name": "symbol_",
          "type": "string"
        }
      ],
      "stateMutability": "nonpayable",
      "type": "constructor"
    },
    {
      "anonymous": false,
      "inputs": [
        {
          "indexed": true,
          "internalType": "address",
          "name": "owner",
          "type": "address"
        },
        {
          "indexed": true,
          "internalType": "address",
          "name": "approved",
          "type": "address"
        },
        {
          "indexed": true,
          "internalType": "uint256",
          "name": "tokenId",
          "type": "uint256"
        }
      ],
      "name": "Approval",
      "type": "event"
    },
    {
      "anonymous": false,
      "inputs": [
        {
          "indexed": true,
          "internalType": "address",
          "name": "owner",
          "type": "address"
        },
        {
          "indexed": true,
          "internalType": "address",
          "name": "operator",
          "type": "address"
        },
        {
          "indexed": false,
          "internalType": "bool",
          "name": "approved",
          "type": "bool"
        }
      ],
      "name": "ApprovalForAll",
      "type": "event"
    },
    {
      "anonymous": false,
      "inputs": [
        {
          "indexed": true,
          "internalType": "address",
          "name": "previousOwner",
          "type": "address"
        },
        {
          "indexed": true,
          "internalType": "address",
          "name": "newOwner",
          "type": "address"
        }
      ],
      "name": "OwnershipTransferred",
      "type": "event"
    },
    {
      "anonymous": false,
      "inputs": [
        {
          "indexed": true,
          "internalType": "address",
          "name": "from",
          "type": "address"
        },
        {
          "indexed": true,
          "internalType": "address",
          "name": "to",
          "type": "address"
        },
        {
          "indexed": true,
          "internalType": "uint256",
          "name": "tokenId",
          "type": "uint256"
        }
      ],
      "name": "Transfer",
      "type": "event"
    },
    {
      "inputs": [
        {
          "internalType": "string",
          "name": "_provenanceHash",
          "type": "string"
        }
      ],
      "name": "ProvenanceHash",
      "outputs": [],
      "stateMutability": "nonpayable",
      "type": "function"
    },
    {
      "inputs": [
        {
          "internalType": "address",
          "name": "to",
          "type": "address"
        },
        {
          "internalType": "uint256",
          "name": "tokenId",
          "type": "uint256"
        }
      ],
      "name": "approve",
      "outputs": [],
      "stateMutability": "nonpayable",
      "type": "function"
    },
    {
      "inputs": [
        {
          "internalType": "address",
          "name": "owner",
          "type": "address"
        }
      ],
      "name": "balanceOf",
      "outputs": [
        {
          "internalType": "uint256",
          "name": "",
          "type": "uint256"
        }
      ],
      "stateMutability": "view",
      "type": "function"
    },
    {
      "inputs": [
        {
          "internalType": "uint256",
          "name": "tokenId",
          "type": "uint256"
        }
      ],
      "name": "getApproved",
      "outputs": [
        {
          "internalType": "address",
          "name": "",
          "type": "address"
        }
      ],
      "stateMutability": "view",
      "type": "function"
    },
    {
      "inputs": [
        {
          "internalType": "address",
          "name": "marketplaceAddress",
          "type": "address"
        }
      ],
      "name": "initMarketplace",
      "outputs": [],
      "stateMutability": "nonpayable",
      "type": "function"
    },
    {
      "inputs": [
        {
          "internalType": "address",
          "name": "owner",
          "type": "address"
        },
        {
          "internalType": "address",
          "name": "operator",
          "type": "address"
        }
      ],
      "name": "isApprovedForAll",
      "outputs": [
        {
          "internalType": "bool",
          "name": "",
          "type": "bool"
        }
      ],
      "stateMutability": "view",
      "type": "function"
    },
    {
      "inputs": [
        {
          "internalType": "uint256",
          "name": "quantity",
          "type": "uint256"
        }
      ],
      "name": "mintToken",
      "outputs": [],
      "stateMutability": "payable",
      "type": "function"
    },
    {
      "inputs": [],
      "name": "name",
      "outputs": [
        {
          "internalType": "string",
          "name": "",
          "type": "string"
        }
      ],
      "stateMutability": "view",
      "type": "function"
    },
    {
      "inputs": [],
      "name": "owner",
      "outputs": [
        {
          "internalType": "address",
          "name": "",
          "type": "address"
        }
      ],
      "stateMutability": "view",
      "type": "function"
    },
    {
      "inputs": [
        {
          "internalType": "uint256",
          "name": "tokenId",
          "type": "uint256"
        }
      ],
      "name": "ownerOf",
      "outputs": [
        {
          "internalType": "address",
          "name": "",
          "type": "address"
        }
      ],
      "stateMutability": "view",
      "type": "function"
    },
    {
      "inputs": [],
      "name": "provenanceHash",
      "outputs": [
        {
          "internalType": "string",
          "name": "",
          "type": "string"
        }
      ],
      "stateMutability": "view",
      "type": "function"
    },
    {
      "inputs": [],
      "name": "renounceOwnership",
      "outputs": [],
      "stateMutability": "nonpayable",
      "type": "function"
    },
    {
      "inputs": [
        {
          "internalType": "uint256",
          "name": "_tokenId",
          "type": "uint256"
        },
        {
          "internalType": "uint256",
          "name": "_salePrice",
          "type": "uint256"
        }
      ],
      "name": "royaltyInfo",
      "outputs": [
        {
          "internalType": "address",
          "name": "",
          "type": "address"
        },
        {
          "internalType": "uint256",
          "name": "",
          "type": "uint256"
        }
      ],
      "stateMutability": "view",
      "type": "function"
    },
    {
      "inputs": [
        {
          "internalType": "address",
          "name": "from",
          "type": "address"
        },
        {
          "internalType": "address",
          "name": "to",
          "type": "address"
        },
        {
          "internalType": "uint256",
          "name": "tokenId",
          "type": "uint256"
        }
      ],
      "name": "safeTransferFrom",
      "outputs": [],
      "stateMutability": "nonpayable",
      "type": "function"
    },
    {
      "inputs": [
        {
          "internalType": "address",
          "name": "from",
          "type": "address"
        },
        {
          "internalType": "address",
          "name": "to",
          "type": "address"
        },
        {
          "internalType": "uint256",
          "name": "tokenId",
          "type": "uint256"
        },
        {
          "internalType": "bytes",
          "name": "data",
          "type": "bytes"
        }
      ],
      "name": "safeTransferFrom",
      "outputs": [],
      "stateMutability": "nonpayable",
      "type": "function"
    },
    {
      "inputs": [
        {
          "internalType": "address",
          "name": "operator",
          "type": "address"
        },
        {
          "internalType": "bool",
          "name": "approved",
          "type": "bool"
        }
      ],
      "name": "setApprovalForAll",
      "outputs": [],
      "stateMutability": "nonpayable",
      "type": "function"
    },
    {
      "inputs": [
        {
          "internalType": "bytes4",
          "name": "interfaceId",
          "type": "bytes4"
        }
      ],
      "name": "supportsInterface",
      "outputs": [
        {
          "internalType": "bool",
          "name": "",
          "type": "bool"
        }
      ],
      "stateMutability": "view",
      "type": "function"
    },
    {
      "inputs": [],
      "name": "symbol",
      "outputs": [
        {
          "internalType": "string",
          "name": "",
          "type": "string"
        }
      ],
      "stateMutability": "view",
      "type": "function"
    },
    {
      "inputs": [
        {
          "internalType": "uint256",
          "name": "_tokenId",
          "type": "uint256"
        }
      ],
      "name": "tokenURI",
      "outputs": [
        {
          "internalType": "string",
          "name": "",
          "type": "string"
        }
      ],
      "stateMutability": "view",
      "type": "function"
    },
    {
      "inputs": [
        {
          "internalType": "address",
          "name": "from",
          "type": "address"
        },
        {
          "internalType": "address",
          "name": "to",
          "type": "address"
        },
        {
          "internalType": "uint256",
          "name": "tokenId",
          "type": "uint256"
        }
      ],
      "name": "transferFrom",
      "outputs": [],
      "stateMutability": "nonpayable",
      "type": "function"
    },
    {
      "inputs": [
        {
          "internalType": "address",
          "name": "newOwner",
          "type": "address"
        }
      ],
      "name": "transferOwnership",
      "outputs": [],
      "stateMutability": "nonpayable",
      "type": "function"
    }
  ],
  "bytecode": "0x608060405260405180602001604052806000815250600c90805190602001906200002b92919062000189565b503480156200003957600080fd5b5060405162003df738038062003df783398181016040528101906200005f9190620002ab565b81816200008162000075620000bd60201b60201c565b620000c560201b60201c565b81600190805190602001906200009992919062000189565b508060029080519060200190620000b292919062000189565b50505050506200048e565b600033905090565b60008060009054906101000a900473ffffffffffffffffffffffffffffffffffffffff169050816000806101000a81548173ffffffffffffffffffffffffffffffffffffffff021916908373ffffffffffffffffffffffffffffffffffffffff1602179055508173ffffffffffffffffffffffffffffffffffffffff168173ffffffffffffffffffffffffffffffffffffffff167f8be0079c531659141344cd1fd0a4f28419497f9722a3daafe3b4186f6b6457e060405160405180910390a35050565b8280546200019790620003b3565b90600052602060002090601f016020900481019282620001bb576000855562000207565b82601f10620001d657805160ff191683800117855562000207565b8280016001018555821562000207579182015b8281111562000206578251825591602001919060010190620001e9565b5b5090506200021691906200021a565b5090565b5b80821115620002355760008160009055506001016200021b565b5090565b6000620002506200024a8462000347565b6200031e565b9050828152602081018484840111156200026957600080fd5b620002768482856200037d565b509392505050565b600082601f8301126200029057600080fd5b8151620002a284826020860162000239565b91505092915050565b60008060408385031215620002bf57600080fd5b600083015167ffffffffffffffff811115620002da57600080fd5b620002e8858286016200027e565b925050602083015167ffffffffffffffff8111156200030657600080fd5b62000314858286016200027e565b9150509250929050565b60006200032a6200033d565b9050620003388282620003e9565b919050565b6000604051905090565b600067ffffffffffffffff8211156200036557620003646200044e565b5b62000370826200047d565b9050602081019050919050565b60005b838110156200039d57808201518184015260208101905062000380565b83811115620003ad576000848401525b50505050565b60006002820490506001821680620003cc57607f821691505b60208210811415620003e357620003e26200041f565b5b50919050565b620003f4826200047d565b810181811067ffffffffffffffff821117156200041657620004156200044e565b5b80604052505050565b7f4e487b7100000000000000000000000000000000000000000000000000000000600052602260045260246000fd5b7f4e487b7100000000000000000000000000000000000000000000000000000000600052604160045260246000fd5b6000601f19601f8301169050919050565b613959806200049e6000396000f3fe60806040526004361061012a5760003560e01c8063715018a6116100ab578063b88d4fde1161006f578063b88d4fde146103ef578063c634d03214610418578063c6ab67a314610434578063c87b56dd1461045f578063e985e9c51461049c578063f2fde38b146104d95761012a565b8063715018a6146103305780638da5cb5b1461034757806395d89b41146103725780639a0d23971461039d578063a22cb465146103c65761012a565b80632a55205a116100f25780632a55205a146102265780633c45dde91461026457806342842e0e1461028d5780636352211e146102b657806370a08231146102f35761012a565b806301ffc9a71461012f57806306fdde031461016c578063081812fc14610197578063095ea7b3146101d457806323b872dd146101fd575b600080fd5b34801561013b57600080fd5b50610156600480360381019061015191906128db565b610502565b6040516101639190612e06565b60405180910390f35b34801561017857600080fd5b50610181610514565b60405161018e9190612e21565b60405180910390f35b3480156101a357600080fd5b506101be60048036038101906101b9919061296e565b6105a6565b6040516101cb9190612d76565b60405180910390f35b3480156101e057600080fd5b506101fb60048036038101906101f6919061289f565b6105ec565b005b34801561020957600080fd5b50610224600480360381019061021f9190612799565b610704565b005b34801561023257600080fd5b5061024d60048036038101906102489190612997565b610764565b60405161025b929190612ddd565b60405180910390f35b34801561027057600080fd5b5061028b60048036038101906102869190612734565b61094f565b005b34801561029957600080fd5b506102b460048036038101906102af9190612799565b61099b565b005b3480156102c257600080fd5b506102dd60048036038101906102d8919061296e565b6109bb565b6040516102ea9190612d76565b60405180910390f35b3480156102ff57600080fd5b5061031a60048036038101906103159190612734565b610a42565b6040516103279190613063565b60405180910390f35b34801561033c57600080fd5b50610345610afa565b005b34801561035357600080fd5b5061035c610b0e565b6040516103699190612d76565b60405180910390f35b34801561037e57600080fd5b50610387610b37565b6040516103949190612e21565b60405180910390f35b3480156103a957600080fd5b506103c460048036038101906103bf919061292d565b610bc9565b005b3480156103d257600080fd5b506103ed60048036038101906103e89190612863565b610beb565b005b3480156103fb57600080fd5b50610416600480360381019061041191906127e8565b610c01565b005b610432600480360381019061042d919061296e565b610c63565b005b34801561044057600080fd5b50610449610d56565b6040516104569190612e21565b60405180910390f35b34801561046b57600080fd5b506104866004803603810190610481919061296e565b610de4565b6040516104939190612e21565b60405180910390f35b3480156104a857600080fd5b506104c360048036038101906104be919061275d565b610e2a565b6040516104d09190612e06565b60405180910390f35b3480156104e557600080fd5b5061050060048036038101906104fb9190612734565b610e96565b005b600061050d82610f1a565b9050919050565b60606001805461052390613313565b80601f016020809104026020016040519081016040528092919081815260200182805461054f90613313565b801561059c5780601f106105715761010080835404028352916020019161059c565b820191906000526020600020905b81548152906001019060200180831161057f57829003601f168201915b5050505050905090565b60006105b182610f94565b6005600083815260200190815260200160002060009054906101000a900473ffffffffffffffffffffffffffffffffffffffff169050919050565b60006105f7826109bb565b90508073ffffffffffffffffffffffffffffffffffffffff168373ffffffffffffffffffffffffffffffffffffffff161415610668576040517f08c379a000000000000000000000000000000000000000000000000000000000815260040161065f90612fc3565b60405180910390fd5b8073ffffffffffffffffffffffffffffffffffffffff16610687610fdf565b73ffffffffffffffffffffffffffffffffffffffff1614806106b657506106b5816106b0610fdf565b610e2a565b5b6106f5576040517f08c379a00000000000000000000000000000000000000000000000000000000081526004016106ec90613003565b60405180910390fd5b6106ff8383610fe7565b505050565b61071561070f610fdf565b826110a0565b610754576040517f08c379a000000000000000000000000000000000000000000000000000000000815260040161074b90612e43565b60405180910390fd5b61075f838383611135565b505050565b6000806000600960008681526020019081526020016000206040518060400160405290816000820160009054906101000a900473ffffffffffffffffffffffffffffffffffffffff1673ffffffffffffffffffffffffffffffffffffffff1673ffffffffffffffffffffffffffffffffffffffff1681526020016000820160149054906101000a90046bffffffffffffffffffffffff166bffffffffffffffffffffffff166bffffffffffffffffffffffff16815250509050600073ffffffffffffffffffffffffffffffffffffffff16816000015173ffffffffffffffffffffffffffffffffffffffff1614156108fa5760086040518060400160405290816000820160009054906101000a900473ffffffffffffffffffffffffffffffffffffffff1673ffffffffffffffffffffffffffffffffffffffff1673ffffffffffffffffffffffffffffffffffffffff1681526020016000820160149054906101000a90046bffffffffffffffffffffffff166bffffffffffffffffffffffff166bffffffffffffffffffffffff168152505090505b60006109046111b5565b6bffffffffffffffffffffffff1682602001516bffffffffffffffffffffffff168661093091906131cf565b61093a919061319e565b90508160000151819350935050509250929050565b6109576111bf565b80600b60006101000a81548173ffffffffffffffffffffffffffffffffffffffff021916908373ffffffffffffffffffffffffffffffffffffffff16021790555050565b6109b683838360405180602001604052806000815250610c01565b505050565b6000806109c78361123d565b9050600073ffffffffffffffffffffffffffffffffffffffff168173ffffffffffffffffffffffffffffffffffffffff161415610a39576040517f08c379a0000000000000000000000000000000000000000000000000000000008152600401610a3090612fa3565b60405180910390fd5b80915050919050565b60008073ffffffffffffffffffffffffffffffffffffffff168273ffffffffffffffffffffffffffffffffffffffff161415610ab3576040517f08c379a0000000000000000000000000000000000000000000000000000000008152600401610aaa90612f43565b60405180910390fd5b600460008373ffffffffffffffffffffffffffffffffffffffff1673ffffffffffffffffffffffffffffffffffffffff168152602001908152602001600020549050919050565b610b026111bf565b610b0c600061127a565b565b60008060009054906101000a900473ffffffffffffffffffffffffffffffffffffffff16905090565b606060028054610b4690613313565b80601f0160208091040260200160405190810160405280929190818152602001828054610b7290613313565b8015610bbf5780601f10610b9457610100808354040283529160200191610bbf565b820191906000526020600020905b815481529060010190602001808311610ba257829003601f168201915b5050505050905090565b610bd16111bf565b80600c9080519060200190610be7929190612558565b5050565b610bfd610bf6610fdf565b838361133e565b5050565b610c12610c0c610fdf565b836110a0565b610c51576040517f08c379a0000000000000000000000000000000000000000000000000000000008152600401610c4890612e43565b60405180910390fd5b610c5d848484846114ab565b50505050565b600181610c7091906131cf565b3414610cb1576040517f08c379a0000000000000000000000000000000000000000000000000000000008152600401610ca890612e63565b60405180910390fd5b60005b81811015610d0457610cc6600a611507565b6000610cd2600a61151d565b9050610ce881610ce0610b0e565b6103e861152b565b610cf233826116d3565b5080610cfd90613376565b9050610cb4565b50610d0d610b0e565b73ffffffffffffffffffffffffffffffffffffffff166108fc349081150290604051600060405180830381858888f19350505050158015610d52573d6000803e3d6000fd5b5050565b600c8054610d6390613313565b80601f0160208091040260200160405190810160405280929190818152602001828054610d8f90613313565b8015610ddc5780601f10610db157610100808354040283529160200191610ddc565b820191906000526020600020905b815481529060010190602001808311610dbf57829003601f168201915b505050505081565b60606000610df1836116f1565b90506000610dfd611815565b82604051602001610e0f929190612d3c565b60405160208183030381529060405290508092505050919050565b6000610e3683836118a7565b80610e8e5750600b60009054906101000a900473ffffffffffffffffffffffffffffffffffffffff1673ffffffffffffffffffffffffffffffffffffffff168273ffffffffffffffffffffffffffffffffffffffff16145b905092915050565b610e9e6111bf565b600073ffffffffffffffffffffffffffffffffffffffff168173ffffffffffffffffffffffffffffffffffffffff161415610f0e576040517f08c379a0000000000000000000000000000000000000000000000000000000008152600401610f0590612ea3565b60405180910390fd5b610f178161127a565b50565b60007f2a55205a000000000000000000000000000000000000000000000000000000007bffffffffffffffffffffffffffffffffffffffffffffffffffffffff1916827bffffffffffffffffffffffffffffffffffffffffffffffffffffffff19161480610f8d5750610f8c8261193b565b5b9050919050565b610f9d81611a1d565b610fdc576040517f08c379a0000000000000000000000000000000000000000000000000000000008152600401610fd390612fa3565b60405180910390fd5b50565b600033905090565b816005600083815260200190815260200160002060006101000a81548173ffffffffffffffffffffffffffffffffffffffff021916908373ffffffffffffffffffffffffffffffffffffffff160217905550808273ffffffffffffffffffffffffffffffffffffffff1661105a836109bb565b73ffffffffffffffffffffffffffffffffffffffff167f8c5be1e5ebec7d5bd14f71427d1e84f3dd0314c0f7b2291e5b200ac8c7c3b92560405160405180910390a45050565b6000806110ac836109bb565b90508073ffffffffffffffffffffffffffffffffffffffff168473ffffffffffffffffffffffffffffffffffffffff1614806110ee57506110ed8185610e2a565b5b8061112c57508373ffffffffffffffffffffffffffffffffffffffff16611114846105a6565b73ffffffffffffffffffffffffffffffffffffffff16145b91505092915050565b600073ffffffffffffffffffffffffffffffffffffffff168273ffffffffffffffffffffffffffffffffffffffff1614156111a5576040517f08c379a000000000000000000000000000000000000000000000000000000000815260040161119c90612fe3565b60405180910390fd5b6111b0838383611a5e565b505050565b6000612710905090565b6111c7610fdf565b73ffffffffffffffffffffffffffffffffffffffff166111e5610b0e565b73ffffffffffffffffffffffffffffffffffffffff161461123b576040517f08c379a000000000000000000000000000000000000000000000000000000000815260040161123290612f83565b60405180910390fd5b565b60006003600083815260200190815260200160002060009054906101000a900473ffffffffffffffffffffffffffffffffffffffff169050919050565b60008060009054906101000a900473ffffffffffffffffffffffffffffffffffffffff169050816000806101000a81548173ffffffffffffffffffffffffffffffffffffffff021916908373ffffffffffffffffffffffffffffffffffffffff1602179055508173ffffffffffffffffffffffffffffffffffffffff168173ffffffffffffffffffffffffffffffffffffffff167f8be0079c531659141344cd1fd0a4f28419497f9722a3daafe3b4186f6b6457e060405160405180910390a35050565b8173ffffffffffffffffffffffffffffffffffffffff168373ffffffffffffffffffffffffffffffffffffffff1614156113ad576040517f08c379a00000000000000000000000000000000000000000000000000000000081526004016113a490612f23565b60405180910390fd5b80600660008573ffffffffffffffffffffffffffffffffffffffff1673ffffffffffffffffffffffffffffffffffffffff16815260200190815260200160002060008473ffffffffffffffffffffffffffffffffffffffff1673ffffffffffffffffffffffffffffffffffffffff16815260200190815260200160002060006101000a81548160ff0219169083151502179055508173ffffffffffffffffffffffffffffffffffffffff168373ffffffffffffffffffffffffffffffffffffffff167f17307eab39ab6107e8899845ad3d59bd9653f200f220920489ca2b5937696c318360405161149e9190612e06565b60405180910390a3505050565b6114b6848484611135565b6114c284848484611d58565b611501576040517f08c379a00000000000000000000000000000000000000000000000000000000081526004016114f890612e83565b60405180910390fd5b50505050565b6001816000016000828254019250508190555050565b600081600001549050919050565b6115336111b5565b6bffffffffffffffffffffffff16816bffffffffffffffffffffffff161115611591576040517f08c379a000000000000000000000000000000000000000000000000000000000815260040161158890613043565b60405180910390fd5b600073ffffffffffffffffffffffffffffffffffffffff168273ffffffffffffffffffffffffffffffffffffffff161415611601576040517f08c379a00000000000000000000000000000000000000000000000000000000081526004016115f890613023565b60405180910390fd5b60405180604001604052808373ffffffffffffffffffffffffffffffffffffffff168152602001826bffffffffffffffffffffffff168152506009600085815260200190815260200160002060008201518160000160006101000a81548173ffffffffffffffffffffffffffffffffffffffff021916908373ffffffffffffffffffffffffffffffffffffffff16021790555060208201518160000160146101000a8154816bffffffffffffffffffffffff02191690836bffffffffffffffffffffffff160217905550905050505050565b6116ed828260405180602001604052806000815250611eef565b5050565b60606000600161170084611f4a565b01905060008167ffffffffffffffff811115611745577f4e487b7100000000000000000000000000000000000000000000000000000000600052604160045260246000fd5b6040519080825280601f01601f1916602001820160405280156117775781602001600182028036833780820191505090505b509050600082602001820190505b60011561180a578080600190039150507f3031323334353637383961626364656600000000000000000000000000000000600a86061a8153600a85816117f4577f4e487b7100000000000000000000000000000000000000000000000000000000600052601260045260246000fd5b04945060008514156118055761180a565b611785565b819350505050919050565b6060600c805461182490613313565b80601f016020809104026020016040519081016040528092919081815260200182805461185090613313565b801561189d5780601f106118725761010080835404028352916020019161189d565b820191906000526020600020905b81548152906001019060200180831161188057829003601f168201915b5050505050905090565b6000600660008473ffffffffffffffffffffffffffffffffffffffff1673ffffffffffffffffffffffffffffffffffffffff16815260200190815260200160002060008373ffffffffffffffffffffffffffffffffffffffff1673ffffffffffffffffffffffffffffffffffffffff16815260200190815260200160002060009054906101000a900460ff16905092915050565b60007f80ac58cd000000000000000000000000000000000000000000000000000000007bffffffffffffffffffffffffffffffffffffffffffffffffffffffff1916827bffffffffffffffffffffffffffffffffffffffffffffffffffffffff19161480611a0657507f5b5e139f000000000000000000000000000000000000000000000000000000007bffffffffffffffffffffffffffffffffffffffffffffffffffffffff1916827bffffffffffffffffffffffffffffffffffffffffffffffffffffffff1916145b80611a165750611a1582612181565b5b9050919050565b60008073ffffffffffffffffffffffffffffffffffffffff16611a3f8361123d565b73ffffffffffffffffffffffffffffffffffffffff1614159050919050565b8273ffffffffffffffffffffffffffffffffffffffff16611a7e826109bb565b73ffffffffffffffffffffffffffffffffffffffff1614611ad4576040517f08c379a0000000000000000000000000000000000000000000000000000000008152600401611acb90612ec3565b60405180910390fd5b600073ffffffffffffffffffffffffffffffffffffffff168273ffffffffffffffffffffffffffffffffffffffff161415611b44576040517f08c379a0000000000000000000000000000000000000000000000000000000008152600401611b3b90612f03565b60405180910390fd5b611b5183838360016121eb565b8273ffffffffffffffffffffffffffffffffffffffff16611b71826109bb565b73ffffffffffffffffffffffffffffffffffffffff1614611bc7576040517f08c379a0000000000000000000000000000000000000000000000000000000008152600401611bbe90612ec3565b60405180910390fd5b6005600082815260200190815260200160002060006101000a81549073ffffffffffffffffffffffffffffffffffffffff02191690556001600460008573ffffffffffffffffffffffffffffffffffffffff1673ffffffffffffffffffffffffffffffffffffffff168152602001908152602001600020600082825403925050819055506001600460008473ffffffffffffffffffffffffffffffffffffffff1673ffffffffffffffffffffffffffffffffffffffff16815260200190815260200160002060008282540192505081905550816003600083815260200190815260200160002060006101000a81548173ffffffffffffffffffffffffffffffffffffffff021916908373ffffffffffffffffffffffffffffffffffffffff160217905550808273ffffffffffffffffffffffffffffffffffffffff168473ffffffffffffffffffffffffffffffffffffffff167fddf252ad1be2c89b69c2b068fc378daa952ba7f163c4a11628f55a4df523b3ef60405160405180910390a4611d538383836001612311565b505050565b6000611d798473ffffffffffffffffffffffffffffffffffffffff16612317565b15611ee2578373ffffffffffffffffffffffffffffffffffffffff1663150b7a02611da2610fdf565b8786866040518563ffffffff1660e01b8152600401611dc49493929190612d91565b602060405180830381600087803b158015611dde57600080fd5b505af1925050508015611e0f57506040513d601f19601f82011682018060405250810190611e0c9190612904565b60015b611e92573d8060008114611e3f576040519150601f19603f3d011682016040523d82523d6000602084013e611e44565b606091505b50600081511415611e8a576040517f08c379a0000000000000000000000000000000000000000000000000000000008152600401611e8190612e83565b60405180910390fd5b805181602001fd5b63150b7a0260e01b7bffffffffffffffffffffffffffffffffffffffffffffffffffffffff1916817bffffffffffffffffffffffffffffffffffffffffffffffffffffffff191614915050611ee7565b600190505b949350505050565b611ef9838361233a565b611f066000848484611d58565b611f45576040517f08c379a0000000000000000000000000000000000000000000000000000000008152600401611f3c90612e83565b60405180910390fd5b505050565b600080600090507a184f03e93ff9f4daa797ed6e38ed64bf6a1f0100000000000000008310611fce577a184f03e93ff9f4daa797ed6e38ed64bf6a1f0100000000000000008381611fc4577f4e487b7100000000000000000000000000000000000000000000000000000000600052601260045260246000fd5b0492506040810190505b6d04ee2d6d415b85acef81000000008310612031576d04ee2d6d415b85acef81000000008381612027577f4e487b7100000000000000000000000000000000000000000000000000000000600052601260045260246000fd5b0492506020810190505b662386f26fc10000831061208657662386f26fc10000838161207c577f4e487b7100000000000000000000000000000000000000000000000000000000600052601260045260246000fd5b0492506010810190505b6305f5e10083106120d5576305f5e10083816120cb577f4e487b7100000000000000000000000000000000000000000000000000000000600052601260045260246000fd5b0492506008810190505b6127108310612120576127108381612116577f4e487b7100000000000000000000000000000000000000000000000000000000600052601260045260246000fd5b0492506004810190505b60648310612169576064838161215f577f4e487b7100000000000000000000000000000000000000000000000000000000600052601260045260246000fd5b0492506002810190505b600a8310612178576001810190505b80915050919050565b60007f01ffc9a7000000000000000000000000000000000000000000000000000000007bffffffffffffffffffffffffffffffffffffffffffffffffffffffff1916827bffffffffffffffffffffffffffffffffffffffffffffffffffffffff1916149050919050565b600181111561230b57600073ffffffffffffffffffffffffffffffffffffffff168473ffffffffffffffffffffffffffffffffffffffff161461227f5780600460008673ffffffffffffffffffffffffffffffffffffffff1673ffffffffffffffffffffffffffffffffffffffff16815260200190815260200160002060008282546122779190613229565b925050819055505b600073ffffffffffffffffffffffffffffffffffffffff168373ffffffffffffffffffffffffffffffffffffffff161461230a5780600460008573ffffffffffffffffffffffffffffffffffffffff1673ffffffffffffffffffffffffffffffffffffffff16815260200190815260200160002060008282546123029190613148565b925050819055505b5b50505050565b50505050565b6000808273ffffffffffffffffffffffffffffffffffffffff163b119050919050565b600073ffffffffffffffffffffffffffffffffffffffff168273ffffffffffffffffffffffffffffffffffffffff1614156123aa576040517f08c379a00000000000000000000000000000000000000000000000000000000081526004016123a190612f63565b60405180910390fd5b6123b381611a1d565b156123f3576040517f08c379a00000000000000000000000000000000000000000000000000000000081526004016123ea90612ee3565b60405180910390fd5b6124016000838360016121eb565b61240a81611a1d565b1561244a576040517f08c379a000000000000000000000000000000000000000000000000000000000815260040161244190612ee3565b60405180910390fd5b6001600460008473ffffffffffffffffffffffffffffffffffffffff1673ffffffffffffffffffffffffffffffffffffffff16815260200190815260200160002060008282540192505081905550816003600083815260200190815260200160002060006101000a81548173ffffffffffffffffffffffffffffffffffffffff021916908373ffffffffffffffffffffffffffffffffffffffff160217905550808273ffffffffffffffffffffffffffffffffffffffff16600073ffffffffffffffffffffffffffffffffffffffff167fddf252ad1be2c89b69c2b068fc378daa952ba7f163c4a11628f55a4df523b3ef60405160405180910390a4612554600083836001612311565b5050565b82805461256490613313565b90600052602060002090601f01602090048101928261258657600085556125cd565b82601f1061259f57805160ff19168380011785556125cd565b828001600101855582156125cd579182015b828111156125cc5782518255916020019190600101906125b1565b5b5090506125da91906125de565b5090565b5b808211156125f75760008160009055506001016125df565b5090565b600061260e612609846130a3565b61307e565b90508281526020810184848401111561262657600080fd5b6126318482856132d1565b509392505050565b600061264c612647846130d4565b61307e565b90508281526020810184848401111561266457600080fd5b61266f8482856132d1565b509392505050565b600081359050612686816138c7565b92915050565b60008135905061269b816138de565b92915050565b6000813590506126b0816138f5565b92915050565b6000815190506126c5816138f5565b92915050565b600082601f8301126126dc57600080fd5b81356126ec8482602086016125fb565b91505092915050565b600082601f83011261270657600080fd5b8135612716848260208601612639565b91505092915050565b60008135905061272e8161390c565b92915050565b60006020828403121561274657600080fd5b600061275484828501612677565b91505092915050565b6000806040838503121561277057600080fd5b600061277e85828601612677565b925050602061278f85828601612677565b9150509250929050565b6000806000606084860312156127ae57600080fd5b60006127bc86828701612677565b93505060206127cd86828701612677565b92505060406127de8682870161271f565b9150509250925092565b600080600080608085870312156127fe57600080fd5b600061280c87828801612677565b945050602061281d87828801612677565b935050604061282e8782880161271f565b925050606085013567ffffffffffffffff81111561284b57600080fd5b612857878288016126cb565b91505092959194509250565b6000806040838503121561287657600080fd5b600061288485828601612677565b92505060206128958582860161268c565b9150509250929050565b600080604083850312156128b257600080fd5b60006128c085828601612677565b92505060206128d18582860161271f565b9150509250929050565b6000602082840312156128ed57600080fd5b60006128fb848285016126a1565b91505092915050565b60006020828403121561291657600080fd5b6000612924848285016126b6565b91505092915050565b60006020828403121561293f57600080fd5b600082013567ffffffffffffffff81111561295957600080fd5b612965848285016126f5565b91505092915050565b60006020828403121561298057600080fd5b600061298e8482850161271f565b91505092915050565b600080604083850312156129aa57600080fd5b60006129b88582860161271f565b92505060206129c98582860161271f565b9150509250929050565b6129dc8161325d565b82525050565b6129eb8161326f565b82525050565b60006129fc82613105565b612a06818561311b565b9350612a168185602086016132e0565b612a1f8161347b565b840191505092915050565b6000612a3582613110565b612a3f818561312c565b9350612a4f8185602086016132e0565b612a588161347b565b840191505092915050565b6000612a6e82613110565b612a78818561313d565b9350612a888185602086016132e0565b80840191505092915050565b6000612aa1602d8361312c565b9150612aac8261348c565b604082019050919050565b6000612ac460108361312c565b9150612acf826134db565b602082019050919050565b6000612ae760328361312c565b9150612af282613504565b604082019050919050565b6000612b0a60268361312c565b9150612b1582613553565b604082019050919050565b6000612b2d60258361312c565b9150612b38826135a2565b604082019050919050565b6000612b50601c8361312c565b9150612b5b826135f1565b602082019050919050565b6000612b7360248361312c565b9150612b7e8261361a565b604082019050919050565b6000612b9660198361312c565b9150612ba182613669565b602082019050919050565b6000612bb960298361312c565b9150612bc482613692565b604082019050919050565b6000612bdc60208361312c565b9150612be7826136e1565b602082019050919050565b6000612bff60058361313d565b9150612c0a8261370a565b600582019050919050565b6000612c2260208361312c565b9150612c2d82613733565b602082019050919050565b6000612c4560188361312c565b9150612c508261375c565b602082019050919050565b6000612c6860218361312c565b9150612c7382613785565b604082019050919050565b6000612c8b60008361312c565b9150612c96826137d4565b600082019050919050565b6000612cae603d8361312c565b9150612cb9826137d7565b604082019050919050565b6000612cd1601b8361312c565b9150612cdc82613826565b602082019050919050565b6000612cf4602a8361312c565b9150612cff8261384f565b604082019050919050565b6000612d1760018361313d565b9150612d228261389e565b600182019050919050565b612d36816132c7565b82525050565b6000612d488285612a63565b9150612d5382612d0a565b9150612d5f8284612a63565b9150612d6a82612bf2565b91508190509392505050565b6000602082019050612d8b60008301846129d3565b92915050565b6000608082019050612da660008301876129d3565b612db360208301866129d3565b612dc06040830185612d2d565b8181036060830152612dd281846129f1565b905095945050505050565b6000604082019050612df260008301856129d3565b612dff6020830184612d2d565b9392505050565b6000602082019050612e1b60008301846129e2565b92915050565b60006020820190508181036000830152612e3b8184612a2a565b905092915050565b60006020820190508181036000830152612e5c81612a94565b9050919050565b60006020820190508181036000830152612e7c81612ab7565b9050919050565b60006020820190508181036000830152612e9c81612ada565b9050919050565b60006020820190508181036000830152612ebc81612afd565b9050919050565b60006020820190508181036000830152612edc81612b20565b9050919050565b60006020820190508181036000830152612efc81612b43565b9050919050565b60006020820190508181036000830152612f1c81612b66565b9050919050565b60006020820190508181036000830152612f3c81612b89565b9050919050565b60006020820190508181036000830152612f5c81612bac565b9050919050565b60006020820190508181036000830152612f7c81612bcf565b9050919050565b60006020820190508181036000830152612f9c81612c15565b9050919050565b60006020820190508181036000830152612fbc81612c38565b9050919050565b60006020820190508181036000830152612fdc81612c5b565b9050919050565b60006020820190508181036000830152612ffc81612c7e565b9050919050565b6000602082019050818103600083015261301c81612ca1565b9050919050565b6000602082019050818103600083015261303c81612cc4565b9050919050565b6000602082019050818103600083015261305c81612ce7565b9050919050565b60006020820190506130786000830184612d2d565b92915050565b6000613088613099565b90506130948282613345565b919050565b6000604051905090565b600067ffffffffffffffff8211156130be576130bd61344c565b5b6130c78261347b565b9050602081019050919050565b600067ffffffffffffffff8211156130ef576130ee61344c565b5b6130f88261347b565b9050602081019050919050565b600081519050919050565b600081519050919050565b600082825260208201905092915050565b600082825260208201905092915050565b600081905092915050565b6000613153826132c7565b915061315e836132c7565b9250827fffffffffffffffffffffffffffffffffffffffffffffffffffffffffffffffff03821115613193576131926133bf565b5b828201905092915050565b60006131a9826132c7565b91506131b4836132c7565b9250826131c4576131c36133ee565b5b828204905092915050565b60006131da826132c7565b91506131e5836132c7565b9250817fffffffffffffffffffffffffffffffffffffffffffffffffffffffffffffffff048311821515161561321e5761321d6133bf565b5b828202905092915050565b6000613234826132c7565b915061323f836132c7565b925082821015613252576132516133bf565b5b828203905092915050565b6000613268826132a7565b9050919050565b60008115159050919050565b60007fffffffff0000000000000000000000000000000000000000000000000000000082169050919050565b600073ffffffffffffffffffffffffffffffffffffffff82169050919050565b6000819050919050565b82818337600083830152505050565b60005b838110156132fe5780820151818401526020810190506132e3565b8381111561330d576000848401525b50505050565b6000600282049050600182168061332b57607f821691505b6020821081141561333f5761333e61341d565b5b50919050565b61334e8261347b565b810181811067ffffffffffffffff8211171561336d5761336c61344c565b5b80604052505050565b6000613381826132c7565b91507fffffffffffffffffffffffffffffffffffffffffffffffffffffffffffffffff8214156133b4576133b36133bf565b5b600182019050919050565b7f4e487b7100000000000000000000000000000000000000000000000000000000600052601160045260246000fd5b7f4e487b7100000000000000000000000000000000000000000000000000000000600052601260045260246000fd5b7f4e487b7100000000000000000000000000000000000000000000000000000000600052602260045260246000fd5b7f4e487b7100000000000000000000000000000000000000000000000000000000600052604160045260246000fd5b6000601f19601f8301169050919050565b7f4552433732313a2063616c6c6572206973206e6f7420746f6b656e206f776e6560008201527f72206f7220617070726f76656400000000000000000000000000000000000000602082015250565b7f5365742052696768742050726963652100000000000000000000000000000000600082015250565b7f4552433732313a207472616e7366657220746f206e6f6e20455243373231526560008201527f63656976657220696d706c656d656e7465720000000000000000000000000000602082015250565b7f4f776e61626c653a206e6577206f776e657220697320746865207a65726f206160008201527f6464726573730000000000000000000000000000000000000000000000000000602082015250565b7f4552433732313a207472616e736665722066726f6d20696e636f72726563742060008201527f6f776e6572000000000000000000000000000000000000000000000000000000602082015250565b7f4552433732313a20746f6b656e20616c7265616479206d696e74656400000000600082015250565b7f4552433732313a207472616e7366657220746f20746865207a65726f2061646460008201527f7265737300000000000000000000000000000000000000000000000000000000602082015250565b7f4552433732313a20617070726f766520746f2063616c6c657200000000000000600082015250565b7f4552433732313a2061646472657373207a65726f206973206e6f74206120766160008201527f6c6964206f776e65720000000000000000000000000000000000000000000000602082015250565b7f4552433732313a206d696e7420746f20746865207a65726f2061646472657373600082015250565b7f2e6a736f6e000000000000000000000000000000000000000000000000000000600082015250565b7f4f776e61626c653a2063616c6c6572206973206e6f7420746865206f776e6572600082015250565b7f4552433732313a20696e76616c696420746f6b656e2049440000000000000000600082015250565b7f4552433732313a20617070726f76616c20746f2063757272656e74206f776e6560008201527f7200000000000000000000000000000000000000000000000000000000000000602082015250565b50565b7f4552433732313a20617070726f76652063616c6c6572206973206e6f7420746f60008201527f6b656e206f776e6572206f7220617070726f76656420666f7220616c6c000000602082015250565b7f455243323938313a20496e76616c696420706172616d65746572730000000000600082015250565b7f455243323938313a20726f79616c7479206665652077696c6c2065786365656460008201527f2073616c65507269636500000000000000000000000000000000000000000000602082015250565b7f2f00000000000000000000000000000000000000000000000000000000000000600082015250565b6138d08161325d565b81146138db57600080fd5b50565b6138e78161326f565b81146138f257600080fd5b50565b6138fe8161327b565b811461390957600080fd5b50565b613915816132c7565b811461392057600080fd5b5056fea2646970667358221220122b6d0619b150a6b84db1671d3064cae15e7140e95da85eae81f04b7c790c2464736f6c63430008040033",
  "linkReferences": {},
  "deployedLinkReferences": {}
}