{
  "_format": "hh-sol-artifact-1",
  "contractName": "Marketplace",
  "sourceName": "contracts/Marketplace.sol",
  "abi": [
    {
      "inputs": [],
      "stateMutability": "nonpayable",
      "type": "constructor"
    },
    {
      "anonymous": false,
      "inputs": [
        {
          "indexed": true,
          "internalType": "address",
          "name": "previousOwner",
          "type": "address"
        },
        {
          "indexed": true,
          "internalType": "address",
          "name": "newOwner",
          "type": "address"
        }
      ],
      "name": "OwnershipTransferred",
      "type": "event"
    },
    {
      "inputs": [
        {
          "internalType": "address",
          "name": "nftAddress",
          "type": "address"
        },
        {
          "internalType": "uint256",
          "name": "tokenId",
          "type": "uint256"
        }
      ],
      "name": "buyToken",
      "outputs": [],
      "stateMutability": "payable",
      "type": "function"
    },
    {
      "inputs": [],
      "name": "owner",
      "outputs": [
        {
          "internalType": "address",
          "name": "",
          "type": "address"
        }
      ],
      "stateMutability": "view",
      "type": "function"
    },
    {
      "inputs": [
        {
          "internalType": "address",
          "name": "dest",
          "type": "address"
        }
      ],
      "name": "payments",
      "outputs": [
        {
          "internalType": "uint256",
          "name": "",
          "type": "uint256"
        }
      ],
      "stateMutability": "view",
      "type": "function"
    },
    {
      "inputs": [],
      "name": "renounceOwnership",
      "outputs": [],
      "stateMutability": "nonpayable",
      "type": "function"
    },
    {
      "inputs": [
        {
          "internalType": "address",
          "name": "nftAddress",
          "type": "address"
        },
        {
          "internalType": "uint256",
          "name": "tokenId",
          "type": "uint256"
        },
        {
          "internalType": "uint256",
          "name": "priceInWei",
          "type": "uint256"
        }
      ],
      "name": "setInSale",
      "outputs": [],
      "stateMutability": "nonpayable",
      "type": "function"
    },
    {
      "inputs": [
        {
          "internalType": "uint256",
          "name": "",
          "type": "uint256"
        }
      ],
      "name": "tokensInfo",
      "outputs": [
        {
          "internalType": "bool",
          "name": "inSale",
          "type": "bool"
        },
        {
          "internalType": "uint256",
          "name": "price",
          "type": "uint256"
        }
      ],
      "stateMutability": "view",
      "type": "function"
    },
    {
      "inputs": [
        {
          "internalType": "address",
          "name": "newOwner",
          "type": "address"
        }
      ],
      "name": "transferOwnership",
      "outputs": [],
      "stateMutability": "nonpayable",
      "type": "function"
    },
    {
      "inputs": [
        {
          "internalType": "address payable",
          "name": "payee",
          "type": "address"
        }
      ],
      "name": "withdrawPayments",
      "outputs": [],
      "stateMutability": "nonpayable",
      "type": "function"
    }
  ],
  "bytecode": "0x60a060405234801561001057600080fd5b5060405161001d90610164565b604051809103906000f080158015610039573d6000803e3d6000fd5b5073ffffffffffffffffffffffffffffffffffffffff1660808173ffffffffffffffffffffffffffffffffffffffff1660601b8152505061008c61008161009860201b60201c565b6100a060201b60201c565b60018081905550610171565b600033905090565b60008060009054906101000a900473ffffffffffffffffffffffffffffffffffffffff169050816000806101000a81548173ffffffffffffffffffffffffffffffffffffffff021916908373ffffffffffffffffffffffffffffffffffffffff1602179055508173ffffffffffffffffffffffffffffffffffffffff168173ffffffffffffffffffffffffffffffffffffffff167f8be0079c531659141344cd1fd0a4f28419497f9722a3daafe3b4186f6b6457e060405160405180910390a35050565b610bb78061159283390190565b60805160601c6113f561019d600039600081816107da0152818161095e01526109f501526113f56000f3fe60806040526004361061007b5760003560e01c8063715018a61161004e578063715018a61461012c5780638da5cb5b14610143578063e2982c211461016e578063f2fde38b146101ab5761007b565b8063176ebbcf1461008057806331b3eb94146100a957806368f8fc10146100d257806369448b6d146100ee575b600080fd5b34801561008c57600080fd5b506100a760048036038101906100a29190610d29565b6101d4565b005b3480156100b557600080fd5b506100d060048036038101906100cb9190610c88565b610319565b005b6100ec60048036038101906100e79190610cb1565b6103ee565b005b3480156100fa57600080fd5b5061011560048036038101906101109190610d78565b610768565b604051610123929190610fae565b60405180910390f35b34801561013857600080fd5b50610141610799565b005b34801561014f57600080fd5b506101586107ad565b6040516101659190610f41565b60405180910390f35b34801561017a57600080fd5b5061019560048036038101906101909190610c36565b6107d6565b6040516101a291906110f7565b60405180910390f35b3480156101b757600080fd5b506101d260048036038101906101cd9190610c36565b610888565b005b8273ffffffffffffffffffffffffffffffffffffffff16636352211e836040518263ffffffff1660e01b815260040161020d91906110f7565b60206040518083038186803b15801561022557600080fd5b505afa158015610239573d6000803e3d6000fd5b505050506040513d601f19601f8201168201806040525081019061025d9190610c5f565b73ffffffffffffffffffffffffffffffffffffffff163373ffffffffffffffffffffffffffffffffffffffff16146102ca576040517f08c379a00000000000000000000000000000000000000000000000000000000081526004016102c190611037565b60405180910390fd5b60016002600084815260200190815260200160002060000160006101000a81548160ff021916908315150217905550806002600084815260200190815260200160002060010181905550505050565b61032161090c565b8073ffffffffffffffffffffffffffffffffffffffff163373ffffffffffffffffffffffffffffffffffffffff161461038f576040517f08c379a000000000000000000000000000000000000000000000000000000000815260040161038690611017565b60405180910390fd5b600061039a826107d6565b116103da576040517f08c379a00000000000000000000000000000000000000000000000000000000081526004016103d190610ff7565b60405180910390fd5b6103e38161095c565b6103eb6109ea565b50565b60006002600083815260200190815260200160002060010154905060008373ffffffffffffffffffffffffffffffffffffffff16636352211e846040518263ffffffff1660e01b815260040161044491906110f7565b60206040518083038186803b15801561045c57600080fd5b505afa158015610470573d6000803e3d6000fd5b505050506040513d601f19601f820116820180604052508101906104949190610c5f565b90508134146104d8576040517f08c379a00000000000000000000000000000000000000000000000000000000081526004016104cf90611077565b60405180910390fd5b8073ffffffffffffffffffffffffffffffffffffffff163373ffffffffffffffffffffffffffffffffffffffff161415610547576040517f08c379a000000000000000000000000000000000000000000000000000000000815260040161053e90611097565b60405180910390fd5b60006002600085815260200190815260200160002060000160006101000a81548160ff0219169083151502179055506000808573ffffffffffffffffffffffffffffffffffffffff16632a55205a86866040518363ffffffff1660e01b81526004016105b4929190611112565b604080518083038186803b1580156105cb57600080fd5b505afa1580156105df573d6000803e3d6000fd5b505050506040513d601f19601f820116820180604052508101906106039190610ced565b91509150600073ffffffffffffffffffffffffffffffffffffffff168273ffffffffffffffffffffffffffffffffffffffff16141580156106715750600073ffffffffffffffffffffffffffffffffffffffff168373ffffffffffffffffffffffffffffffffffffffff1614155b6106b0576040517f08c379a00000000000000000000000000000000000000000000000000000000081526004016106a7906110b7565b60405180910390fd5b600081856106be919061114c565b9050600060026000888152602001908152602001600020600101819055506106e683836109f3565b6106f084826109f3565b8673ffffffffffffffffffffffffffffffffffffffff166342842e0e8533896040518463ffffffff1660e01b815260040161072d93929190610f77565b600060405180830381600087803b15801561074757600080fd5b505af115801561075b573d6000803e3d6000fd5b5050505050505050505050565b60026020528060005260406000206000915090508060000160009054906101000a900460ff16908060010154905082565b6107a1610a83565b6107ab6000610b01565b565b60008060009054906101000a900473ffffffffffffffffffffffffffffffffffffffff16905090565b60007f000000000000000000000000000000000000000000000000000000000000000073ffffffffffffffffffffffffffffffffffffffff1663e3a9db1a836040518263ffffffff1660e01b81526004016108319190610f41565b60206040518083038186803b15801561084957600080fd5b505afa15801561085d573d6000803e3d6000fd5b505050506040513d601f19601f820116820180604052508101906108819190610da1565b9050919050565b610890610a83565b600073ffffffffffffffffffffffffffffffffffffffff168173ffffffffffffffffffffffffffffffffffffffff161415610900576040517f08c379a00000000000000000000000000000000000000000000000000000000081526004016108f790610fd7565b60405180910390fd5b61090981610b01565b50565b60026001541415610952576040517f08c379a0000000000000000000000000000000000000000000000000000000008152600401610949906110d7565b60405180910390fd5b6002600181905550565b7f000000000000000000000000000000000000000000000000000000000000000073ffffffffffffffffffffffffffffffffffffffff166351cff8d9826040518263ffffffff1660e01b81526004016109b59190610f5c565b600060405180830381600087803b1580156109cf57600080fd5b505af11580156109e3573d6000803e3d6000fd5b5050505050565b60018081905550565b7f000000000000000000000000000000000000000000000000000000000000000073ffffffffffffffffffffffffffffffffffffffff1663f340fa0182846040518363ffffffff1660e01b8152600401610a4d9190610f41565b6000604051808303818588803b158015610a6657600080fd5b505af1158015610a7a573d6000803e3d6000fd5b50505050505050565b610a8b610bc5565b73ffffffffffffffffffffffffffffffffffffffff16610aa96107ad565b73ffffffffffffffffffffffffffffffffffffffff1614610aff576040517f08c379a0000000000000000000000000000000000000000000000000000000008152600401610af690611057565b60405180910390fd5b565b60008060009054906101000a900473ffffffffffffffffffffffffffffffffffffffff169050816000806101000a81548173ffffffffffffffffffffffffffffffffffffffff021916908373ffffffffffffffffffffffffffffffffffffffff1602179055508173ffffffffffffffffffffffffffffffffffffffff168173ffffffffffffffffffffffffffffffffffffffff167f8be0079c531659141344cd1fd0a4f28419497f9722a3daafe3b4186f6b6457e060405160405180910390a35050565b600033905090565b600081359050610bdc8161137a565b92915050565b600081519050610bf18161137a565b92915050565b600081359050610c0681611391565b92915050565b600081359050610c1b816113a8565b92915050565b600081519050610c30816113a8565b92915050565b600060208284031215610c4857600080fd5b6000610c5684828501610bcd565b91505092915050565b600060208284031215610c7157600080fd5b6000610c7f84828501610be2565b91505092915050565b600060208284031215610c9a57600080fd5b6000610ca884828501610bf7565b91505092915050565b60008060408385031215610cc457600080fd5b6000610cd285828601610bcd565b9250506020610ce385828601610c0c565b9150509250929050565b60008060408385031215610d0057600080fd5b6000610d0e85828601610be2565b9250506020610d1f85828601610c21565b9150509250929050565b600080600060608486031215610d3e57600080fd5b6000610d4c86828701610bcd565b9350506020610d5d86828701610c0c565b9250506040610d6e86828701610c0c565b9150509250925092565b600060208284031215610d8a57600080fd5b6000610d9884828501610c0c565b91505092915050565b600060208284031215610db357600080fd5b6000610dc184828501610c21565b91505092915050565b610dd381611192565b82525050565b610de281611180565b82525050565b610df1816111a4565b82525050565b6000610e0460268361113b565b9150610e0f82611209565b604082019050919050565b6000610e2760128361113b565b9150610e3282611258565b602082019050919050565b6000610e4a60198361113b565b9150610e5582611281565b602082019050919050565b6000610e6d601c8361113b565b9150610e78826112aa565b602082019050919050565b6000610e9060208361113b565b9150610e9b826112d3565b602082019050919050565b6000610eb3600f8361113b565b9150610ebe826112fc565b602082019050919050565b6000610ed660198361113b565b9150610ee182611325565b602082019050919050565b6000610ef960008361113b565b9150610f048261134e565b600082019050919050565b6000610f1c601f8361113b565b9150610f2782611351565b602082019050919050565b610f3b816111d0565b82525050565b6000602082019050610f566000830184610dd9565b92915050565b6000602082019050610f716000830184610dca565b92915050565b6000606082019050610f8c6000830186610dd9565b610f996020830185610dd9565b610fa66040830184610f32565b949350505050565b6000604082019050610fc36000830185610de8565b610fd06020830184610f32565b9392505050565b60006020820190508181036000830152610ff081610df7565b9050919050565b6000602082019050818103600083015261101081610e1a565b9050919050565b6000602082019050818103600083015261103081610e3d565b9050919050565b6000602082019050818103600083015261105081610e60565b9050919050565b6000602082019050818103600083015261107081610e83565b9050919050565b6000602082019050818103600083015261109081610ea6565b9050919050565b600060208201905081810360008301526110b081610ec9565b9050919050565b600060208201905081810360008301526110d081610eec565b9050919050565b600060208201905081810360008301526110f081610f0f565b9050919050565b600060208201905061110c6000830184610f32565b92915050565b60006040820190506111276000830185610f32565b6111346020830184610f32565b9392505050565b600082825260208201905092915050565b6000611157826111d0565b9150611162836111d0565b925082821015611175576111746111da565b5b828203905092915050565b600061118b826111b0565b9050919050565b600061119d826111b0565b9050919050565b60008115159050919050565b600073ffffffffffffffffffffffffffffffffffffffff82169050919050565b6000819050919050565b7f4e487b7100000000000000000000000000000000000000000000000000000000600052601160045260246000fd5b7f4f776e61626c653a206e6577206f776e657220697320746865207a65726f206160008201527f6464726573730000000000000000000000000000000000000000000000000000602082015250565b7f4e6f7468696e6720746f20526563656976650000000000000000000000000000600082015250565b7f43616e277420757365206f746865727320416464726573732100000000000000600082015250565b7f596f7520617265206e6f742074686520746f6b656e204f776e65722100000000600082015250565b7f4f776e61626c653a2063616c6c6572206973206e6f7420746865206f776e6572600082015250565b7f5365742072696768742050726963650000000000000000000000000000000000600082015250565b7f43616e27742062757920796f7572206f776e20746f6b656e2100000000000000600082015250565b50565b7f5265656e7472616e637947756172643a207265656e7472616e742063616c6c00600082015250565b61138381611180565b811461138e57600080fd5b50565b61139a81611192565b81146113a557600080fd5b50565b6113b1816111d0565b81146113bc57600080fd5b5056fea2646970667358221220d795ea154178e6ae36145fd20f9858f587f77b4cbd314c9e6db0f693f7391ded64736f6c63430008040033608060405234801561001057600080fd5b5061002d61002261003260201b60201c565b61003a60201b60201c565b6100fe565b600033905090565b60008060009054906101000a900473ffffffffffffffffffffffffffffffffffffffff169050816000806101000a81548173ffffffffffffffffffffffffffffffffffffffff021916908373ffffffffffffffffffffffffffffffffffffffff1602179055508173ffffffffffffffffffffffffffffffffffffffff168173ffffffffffffffffffffffffffffffffffffffff167f8be0079c531659141344cd1fd0a4f28419497f9722a3daafe3b4186f6b6457e060405160405180910390a35050565b610aaa8061010d6000396000f3fe6080604052600436106100555760003560e01c806351cff8d91461005a578063715018a6146100835780638da5cb5b1461009a578063e3a9db1a146100c5578063f2fde38b14610102578063f340fa011461012b575b600080fd5b34801561006657600080fd5b50610081600480360381019061007c91906106a3565b610147565b005b34801561008f57600080fd5b50610098610253565b005b3480156100a657600080fd5b506100af610267565b6040516100bc91906107ae565b60405180910390f35b3480156100d157600080fd5b506100ec60048036038101906100e7919061067a565b610290565b6040516100f99190610849565b60405180910390f35b34801561010e57600080fd5b506101296004803603810190610124919061067a565b6102d9565b005b6101456004803603810190610140919061067a565b61035d565b005b61014f610412565b6000600160008373ffffffffffffffffffffffffffffffffffffffff1673ffffffffffffffffffffffffffffffffffffffff1681526020019081526020016000205490506000600160008473ffffffffffffffffffffffffffffffffffffffff1673ffffffffffffffffffffffffffffffffffffffff16815260200190815260200160002081905550610201818373ffffffffffffffffffffffffffffffffffffffff1661049090919063ffffffff16565b8173ffffffffffffffffffffffffffffffffffffffff167f7084f5476618d8e60b11ef0d7d3f06914655adb8793e28ff7f018d4c76d505d5826040516102479190610849565b60405180910390a25050565b61025b610412565b6102656000610584565b565b60008060009054906101000a900473ffffffffffffffffffffffffffffffffffffffff16905090565b6000600160008373ffffffffffffffffffffffffffffffffffffffff1673ffffffffffffffffffffffffffffffffffffffff168152602001908152602001600020549050919050565b6102e1610412565b600073ffffffffffffffffffffffffffffffffffffffff168173ffffffffffffffffffffffffffffffffffffffff161415610351576040517f08c379a0000000000000000000000000000000000000000000000000000000008152600401610348906107c9565b60405180910390fd5b61035a81610584565b50565b610365610412565b600034905080600160008473ffffffffffffffffffffffffffffffffffffffff1673ffffffffffffffffffffffffffffffffffffffff16815260200190815260200160002060008282546103b99190610880565b925050819055508173ffffffffffffffffffffffffffffffffffffffff167f2da466a7b24304f47e87fa2e1e5a81b9831ce54fec19055ce277ca2f39ba42c4826040516104069190610849565b60405180910390a25050565b61041a610648565b73ffffffffffffffffffffffffffffffffffffffff16610438610267565b73ffffffffffffffffffffffffffffffffffffffff161461048e576040517f08c379a000000000000000000000000000000000000000000000000000000000815260040161048590610829565b60405180910390fd5b565b804710156104d3576040517f08c379a00000000000000000000000000000000000000000000000000000000081526004016104ca90610809565b60405180910390fd5b60008273ffffffffffffffffffffffffffffffffffffffff16826040516104f990610799565b60006040518083038185875af1925050503d8060008114610536576040519150601f19603f3d011682016040523d82523d6000602084013e61053b565b606091505b505090508061057f576040517f08c379a0000000000000000000000000000000000000000000000000000000008152600401610576906107e9565b60405180910390fd5b505050565b60008060009054906101000a900473ffffffffffffffffffffffffffffffffffffffff169050816000806101000a81548173ffffffffffffffffffffffffffffffffffffffff021916908373ffffffffffffffffffffffffffffffffffffffff1602179055508173ffffffffffffffffffffffffffffffffffffffff168173ffffffffffffffffffffffffffffffffffffffff167f8be0079c531659141344cd1fd0a4f28419497f9722a3daafe3b4186f6b6457e060405160405180910390a35050565b600033905090565b60008135905061065f81610a46565b92915050565b60008135905061067481610a5d565b92915050565b60006020828403121561068c57600080fd5b600061069a84828501610650565b91505092915050565b6000602082840312156106b557600080fd5b60006106c384828501610665565b91505092915050565b6106d5816108d6565b82525050565b60006106e860268361086f565b91506106f382610953565b604082019050919050565b600061070b603a8361086f565b9150610716826109a2565b604082019050919050565b600061072e601d8361086f565b9150610739826109f1565b602082019050919050565b600061075160208361086f565b915061075c82610a1a565b602082019050919050565b6000610774600083610864565b915061077f82610a43565b600082019050919050565b6107938161091a565b82525050565b60006107a482610767565b9150819050919050565b60006020820190506107c360008301846106cc565b92915050565b600060208201905081810360008301526107e2816106db565b9050919050565b60006020820190508181036000830152610802816106fe565b9050919050565b6000602082019050818103600083015261082281610721565b9050919050565b6000602082019050818103600083015261084281610744565b9050919050565b600060208201905061085e600083018461078a565b92915050565b600081905092915050565b600082825260208201905092915050565b600061088b8261091a565b91506108968361091a565b9250827fffffffffffffffffffffffffffffffffffffffffffffffffffffffffffffffff038211156108cb576108ca610924565b5b828201905092915050565b60006108e1826108fa565b9050919050565b60006108f3826108fa565b9050919050565b600073ffffffffffffffffffffffffffffffffffffffff82169050919050565b6000819050919050565b7f4e487b7100000000000000000000000000000000000000000000000000000000600052601160045260246000fd5b7f4f776e61626c653a206e6577206f776e657220697320746865207a65726f206160008201527f6464726573730000000000000000000000000000000000000000000000000000602082015250565b7f416464726573733a20756e61626c6520746f2073656e642076616c75652c207260008201527f6563697069656e74206d61792068617665207265766572746564000000000000602082015250565b7f416464726573733a20696e73756666696369656e742062616c616e6365000000600082015250565b7f4f776e61626c653a2063616c6c6572206973206e6f7420746865206f776e6572600082015250565b50565b610a4f816108d6565b8114610a5a57600080fd5b50565b610a66816108e8565b8114610a7157600080fd5b5056fea26469706673582212205776c20e74c7b35b58c72334a5f58a657405bf328d10c0546595c8c4d94ac03964736f6c63430008040033",
  "linkReferences": {},
  "deployedLinkReferences": {}
}